{
  "contractName": "MedicineSupplyChain",
  "abi": [
    {
      "anonymous": false,
      "inputs": [
        {
          "indexed": true,
          "internalType": "string",
          "name": "batchId",
          "type": "string"
        },
        {
          "indexed": false,
          "internalType": "string",
          "name": "name",
          "type": "string"
        },
        {
          "indexed": true,
          "internalType": "address",
          "name": "owner",
          "type": "address"
        }
      ],
      "name": "MedicineAdded",
      "type": "event"
    },
    {
      "anonymous": false,
      "inputs": [
        {
          "indexed": true,
          "internalType": "string",
          "name": "batchId",
          "type": "string"
        },
        {
          "indexed": false,
          "internalType": "string",
          "name": "enduser",
          "type": "string"
        },
        {
          "indexed": true,
          "internalType": "address",
          "name": "soldBy",
          "type": "address"
        }
      ],
      "name": "MedicineSold",
      "type": "event"
    },
    {
      "anonymous": false,
      "inputs": [
        {
          "indexed": true,
          "internalType": "string",
          "name": "batchId",
          "type": "string"
        },
        {
          "indexed": false,
          "internalType": "enum MedicineSupplyChain.MedicineStatus",
          "name": "status",
          "type": "uint8"
        },
        {
          "indexed": true,
          "internalType": "address",
          "name": "updatedBy",
          "type": "address"
        }
      ],
      "name": "MedicineStatusUpdated",
      "type": "event"
    },
    {
      "inputs": [
        {
          "internalType": "string",
          "name": "name",
          "type": "string"
        },
        {
          "internalType": "string",
          "name": "batchId",
          "type": "string"
        },
        {
          "internalType": "string",
          "name": "supplier",
          "type": "string"
        },
        {
          "internalType": "string",
          "name": "manufacturer",
          "type": "string"
        },
        {
          "internalType": "string",
          "name": "distributor",
          "type": "string"
        },
        {
          "internalType": "string",
          "name": "qrCode",
          "type": "string"
        }
      ],
      "name": "addMedicine",
      "outputs": [],
      "stateMutability": "nonpayable",
      "type": "function"
    },
    {
      "inputs": [
        {
          "internalType": "string",
          "name": "batchId",
          "type": "string"
        },
        {
          "internalType": "enum MedicineSupplyChain.MedicineStatus",
          "name": "status",
          "type": "uint8"
        }
      ],
      "name": "updateStatus",
      "outputs": [],
      "stateMutability": "nonpayable",
      "type": "function"
    },
    {
      "inputs": [
        {
          "internalType": "string",
          "name": "batchId",
          "type": "string"
        },
        {
          "internalType": "string",
          "name": "enduser",
          "type": "string"
        }
      ],
      "name": "sellMedicine",
      "outputs": [],
      "stateMutability": "nonpayable",
      "type": "function"
    },
    {
      "inputs": [
        {
          "internalType": "string",
          "name": "batchId",
          "type": "string"
        }
      ],
      "name": "getMedicineDetails",
      "outputs": [
        {
          "internalType": "string",
          "name": "name",
          "type": "string"
        },
        {
          "internalType": "string",
          "name": "batchIdOut",
          "type": "string"
        },
        {
          "internalType": "string",
          "name": "supplier",
          "type": "string"
        },
        {
          "internalType": "string",
          "name": "manufacturer",
          "type": "string"
        },
        {
          "internalType": "string",
          "name": "distributor",
          "type": "string"
        },
        {
          "internalType": "string",
          "name": "qrCode",
          "type": "string"
        },
        {
          "internalType": "enum MedicineSupplyChain.MedicineStatus",
          "name": "status",
          "type": "uint8"
        },
        {
          "internalType": "string",
          "name": "enduser",
          "type": "string"
        },
        {
          "internalType": "address",
          "name": "owner",
          "type": "address"
        }
      ],
      "stateMutability": "view",
      "type": "function"
    }
  ],
  "bytecode": "0x608060405234801561000f575f80fd5b5061189e8061001d5f395ff3fe608060405234801561000f575f80fd5b506004361061004a575f3560e01c806332a486d81461004e57806349a00cf91461006a5780635361698214610086578063adcd1dcd146100a2575b5f80fd5b61006860048036038101906100639190610eb2565b6100da565b005b610084600480360381019061007f9190610fe3565b610382565b005b6100a0600480360381019061009b919061107c565b61060e565b005b6100bc60048036038101906100b791906110d6565b6107d9565b6040516100d199989796959493929190611249565b60405180910390f35b5f856040516100e9919061133f565b908152602001604051809103902060080160149054906101000a900460ff1615610148576040517f08c379a000000000000000000000000000000000000000000000000000000000815260040161013f9061139f565b60405180910390fd5b6040518061014001604052808781526020018681526020018581526020018481526020018381526020018281526020015f600381111561018b5761018a611197565b5b815260200160405180602001604052805f81525081526020013373ffffffffffffffffffffffffffffffffffffffff168152602001600115158152505f866040516101d6919061133f565b90815260200160405180910390205f820151815f0190816101f791906115c0565b50602082015181600101908161020d91906115c0565b50604082015181600201908161022391906115c0565b50606082015181600301908161023991906115c0565b50608082015181600401908161024f91906115c0565b5060a082015181600501908161026591906115c0565b5060c0820151816006015f6101000a81548160ff021916908360038111156102905761028f611197565b5b021790555060e08201518160070190816102aa91906115c0565b50610100820151816008015f6101000a81548173ffffffffffffffffffffffffffffffffffffffff021916908373ffffffffffffffffffffffffffffffffffffffff1602179055506101208201518160080160146101000a81548160ff0219169083151502179055509050503373ffffffffffffffffffffffffffffffffffffffff168560405161033b919061133f565b60405180910390207fde634bc987c3c2c6705fee7d1fe9717bc1e4414c8c714a94f740c51004a950c588604051610372919061168f565b60405180910390a3505050505050565b815f81604051610392919061133f565b908152602001604051809103902060080160149054906101000a900460ff166103f0576040517f08c379a00000000000000000000000000000000000000000000000000000000081526004016103e7906116f9565b60405180910390fd5b3373ffffffffffffffffffffffffffffffffffffffff165f82604051610416919061133f565b90815260200160405180910390206008015f9054906101000a900473ffffffffffffffffffffffffffffffffffffffff1673ffffffffffffffffffffffffffffffffffffffff161461049d576040517f08c379a000000000000000000000000000000000000000000000000000000000815260040161049490611761565b60405180910390fd5b6003808111156104b0576104af611197565b5b5f846040516104bf919061133f565b90815260200160405180910390206006015f9054906101000a900460ff1660038111156104ef576104ee611197565b5b0361052f576040517f08c379a0000000000000000000000000000000000000000000000000000000008152600401610526906117c9565b60405180910390fd5b815f8460405161053f919061133f565b9081526020016040518091039020600701908161055c91906115c0565b5060035f8460405161056e919061133f565b90815260200160405180910390206006015f6101000a81548160ff021916908360038111156105a05761059f611197565b5b02179055503373ffffffffffffffffffffffffffffffffffffffff16836040516105ca919061133f565b60405180910390207f2cf3a9b1583ffd7d02cd5b596f80242f79631c8335dee11646c0449232a680ba84604051610601919061168f565b60405180910390a3505050565b815f8160405161061e919061133f565b908152602001604051809103902060080160149054906101000a900460ff1661067c576040517f08c379a0000000000000000000000000000000000000000000000000000000008152600401610673906116f9565b60405180910390fd5b3373ffffffffffffffffffffffffffffffffffffffff165f826040516106a2919061133f565b90815260200160405180910390206008015f9054906101000a900473ffffffffffffffffffffffffffffffffffffffff1673ffffffffffffffffffffffffffffffffffffffff1614610729576040517f08c379a000000000000000000000000000000000000000000000000000000000815260040161072090611761565b60405180910390fd5b815f84604051610739919061133f565b90815260200160405180910390206006015f6101000a81548160ff0219169083600381111561076b5761076a611197565b5b02179055503373ffffffffffffffffffffffffffffffffffffffff1683604051610795919061133f565b60405180910390207f94a9d38995466a6e0b72b7b0b3f122541f7654ec5b071a4860343c04e0a10746846040516107cc91906117e7565b60405180910390a3505050565b6060806060806060805f60605f808a6040516107f5919061133f565b908152602001604051809103902060080160149054906101000a900460ff16610853576040517f08c379a000000000000000000000000000000000000000000000000000000000815260040161084a9061184a565b60405180910390fd5b5f808b604051610863919061133f565b9081526020016040518091039020604051806101400160405290815f8201805461088c906113ea565b80601f01602080910402602001604051908101604052809291908181526020018280546108b8906113ea565b80156109035780601f106108da57610100808354040283529160200191610903565b820191905f5260205f20905b8154815290600101906020018083116108e657829003601f168201915b5050505050815260200160018201805461091c906113ea565b80601f0160208091040260200160405190810160405280929190818152602001828054610948906113ea565b80156109935780601f1061096a57610100808354040283529160200191610993565b820191905f5260205f20905b81548152906001019060200180831161097657829003601f168201915b505050505081526020016002820180546109ac906113ea565b80601f01602080910402602001604051908101604052809291908181526020018280546109d8906113ea565b8015610a235780601f106109fa57610100808354040283529160200191610a23565b820191905f5260205f20905b815481529060010190602001808311610a0657829003601f168201915b50505050508152602001600382018054610a3c906113ea565b80601f0160208091040260200160405190810160405280929190818152602001828054610a68906113ea565b8015610ab35780601f10610a8a57610100808354040283529160200191610ab3565b820191905f5260205f20905b815481529060010190602001808311610a9657829003601f168201915b50505050508152602001600482018054610acc906113ea565b80601f0160208091040260200160405190810160405280929190818152602001828054610af8906113ea565b8015610b435780601f10610b1a57610100808354040283529160200191610b43565b820191905f5260205f20905b815481529060010190602001808311610b2657829003601f168201915b50505050508152602001600582018054610b5c906113ea565b80601f0160208091040260200160405190810160405280929190818152602001828054610b88906113ea565b8015610bd35780601f10610baa57610100808354040283529160200191610bd3565b820191905f5260205f20905b815481529060010190602001808311610bb657829003601f168201915b50505050508152602001600682015f9054906101000a900460ff166003811115610c0057610bff611197565b5b6003811115610c1257610c11611197565b5b8152602001600782018054610c26906113ea565b80601f0160208091040260200160405190810160405280929190818152602001828054610c52906113ea565b8015610c9d5780601f10610c7457610100808354040283529160200191610c9d565b820191905f5260205f20905b815481529060010190602001808311610c8057829003601f168201915b50505050508152602001600882015f9054906101000a900473ffffffffffffffffffffffffffffffffffffffff1673ffffffffffffffffffffffffffffffffffffffff1673ffffffffffffffffffffffffffffffffffffffff1681526020016008820160149054906101000a900460ff1615151515815250509050805f015181602001518260400151836060015184608001518560a001518660c001518760e00151886101000151995099509950995099509950995099509950509193959799909294969850565b5f604051905090565b5f80fd5b5f80fd5b5f80fd5b5f80fd5b5f601f19601f8301169050919050565b7f4e487b71000000000000000000000000000000000000000000000000000000005f52604160045260245ffd5b610dc482610d7e565b810181811067ffffffffffffffff82111715610de357610de2610d8e565b5b80604052505050565b5f610df5610d65565b9050610e018282610dbb565b919050565b5f67ffffffffffffffff821115610e2057610e1f610d8e565b5b610e2982610d7e565b9050602081019050919050565b828183375f83830152505050565b5f610e56610e5184610e06565b610dec565b905082815260208101848484011115610e7257610e71610d7a565b5b610e7d848285610e36565b509392505050565b5f82601f830112610e9957610e98610d76565b5b8135610ea9848260208601610e44565b91505092915050565b5f805f805f8060c08789031215610ecc57610ecb610d6e565b5b5f87013567ffffffffffffffff811115610ee957610ee8610d72565b5b610ef589828a01610e85565b965050602087013567ffffffffffffffff811115610f1657610f15610d72565b5b610f2289828a01610e85565b955050604087013567ffffffffffffffff811115610f4357610f42610d72565b5b610f4f89828a01610e85565b945050606087013567ffffffffffffffff811115610f7057610f6f610d72565b5b610f7c89828a01610e85565b935050608087013567ffffffffffffffff811115610f9d57610f9c610d72565b5b610fa989828a01610e85565b92505060a087013567ffffffffffffffff811115610fca57610fc9610d72565b5b610fd689828a01610e85565b9150509295509295509295565b5f8060408385031215610ff957610ff8610d6e565b5b5f83013567ffffffffffffffff81111561101657611015610d72565b5b61102285828601610e85565b925050602083013567ffffffffffffffff81111561104357611042610d72565b5b61104f85828601610e85565b9150509250929050565b60048110611065575f80fd5b50565b5f8135905061107681611059565b92915050565b5f806040838503121561109257611091610d6e565b5b5f83013567ffffffffffffffff8111156110af576110ae610d72565b5b6110bb85828601610e85565b92505060206110cc85828601611068565b9150509250929050565b5f602082840312156110eb576110ea610d6e565b5b5f82013567ffffffffffffffff81111561110857611107610d72565b5b61111484828501610e85565b91505092915050565b5f81519050919050565b5f82825260208201905092915050565b5f5b83811015611154578082015181840152602081019050611139565b5f8484015250505050565b5f6111698261111d565b6111738185611127565b9350611183818560208601611137565b61118c81610d7e565b840191505092915050565b7f4e487b71000000000000000000000000000000000000000000000000000000005f52602160045260245ffd5b600481106111d5576111d4611197565b5b50565b5f8190506111e5826111c4565b919050565b5f6111f4826111d8565b9050919050565b611204816111ea565b82525050565b5f73ffffffffffffffffffffffffffffffffffffffff82169050919050565b5f6112338261120a565b9050919050565b61124381611229565b82525050565b5f610120820190508181035f830152611262818c61115f565b90508181036020830152611276818b61115f565b9050818103604083015261128a818a61115f565b9050818103606083015261129e818961115f565b905081810360808301526112b2818861115f565b905081810360a08301526112c6818761115f565b90506112d560c08301866111fb565b81810360e08301526112e7818561115f565b90506112f761010083018461123a565b9a9950505050505050505050565b5f81905092915050565b5f6113198261111d565b6113238185611305565b9350611333818560208601611137565b80840191505092915050565b5f61134a828461130f565b915081905092915050565b7f4d65646963696e6520616c7265616479206578697374730000000000000000005f82015250565b5f611389601783611127565b915061139482611355565b602082019050919050565b5f6020820190508181035f8301526113b68161137d565b9050919050565b7f4e487b71000000000000000000000000000000000000000000000000000000005f52602260045260245ffd5b5f600282049050600182168061140157607f821691505b602082108103611414576114136113bd565b5b50919050565b5f819050815f5260205f209050919050565b5f6020601f8301049050919050565b5f82821b905092915050565b5f600883026114767fffffffffffffffffffffffffffffffffffffffffffffffffffffffffffffffff8261143b565b611480868361143b565b95508019841693508086168417925050509392505050565b5f819050919050565b5f819050919050565b5f6114c46114bf6114ba84611498565b6114a1565b611498565b9050919050565b5f819050919050565b6114dd836114aa565b6114f16114e9826114cb565b848454611447565b825550505050565b5f90565b6115056114f9565b6115108184846114d4565b505050565b5b81811015611533576115285f826114fd565b600181019050611516565b5050565b601f821115611578576115498161141a565b6115528461142c565b81016020851015611561578190505b61157561156d8561142c565b830182611515565b50505b505050565b5f82821c905092915050565b5f6115985f198460080261157d565b1980831691505092915050565b5f6115b08383611589565b9150826002028217905092915050565b6115c98261111d565b67ffffffffffffffff8111156115e2576115e1610d8e565b5b6115ec82546113ea565b6115f7828285611537565b5f60209050601f831160018114611628575f8415611616578287015190505b61162085826115a5565b865550611687565b601f1984166116368661141a565b5f5b8281101561165d57848901518255600182019150602085019450602081019050611638565b8683101561167a5784890151611676601f891682611589565b8355505b6001600288020188555050505b505050505050565b5f6020820190508181035f8301526116a7818461115f565b905092915050565b7f4d65646963696e6520646f6573206e6f742065786973740000000000000000005f82015250565b5f6116e3601783611127565b91506116ee826116af565b602082019050919050565b5f6020820190508181035f830152611710816116d7565b9050919050565b7f4e6f7420617574686f72697a65640000000000000000000000000000000000005f82015250565b5f61174b600e83611127565b915061175682611717565b602082019050919050565b5f6020820190508181035f8301526117788161173f565b9050919050565b7f4d65646963696e6520616c726561647920736f6c6400000000000000000000005f82015250565b5f6117b3601583611127565b91506117be8261177f565b602082019050919050565b5f6020820190508181035f8301526117e0816117a7565b9050919050565b5f6020820190506117fa5f8301846111fb565b92915050565b7f4d65646963696e65206e6f7420666f756e6400000000000000000000000000005f82015250565b5f611834601283611127565b915061183f82611800565b602082019050919050565b5f6020820190508181035f83015261186181611828565b905091905056fea2646970667358221220e1150f5946d46c921dce14e264ba6d517d74b1760e473541508f093f622f0aa264736f6c63430008140033",
  "immutableReferences": {},
  "source": "// SPDX-License-Identifier: MIT\r\npragma solidity ^0.8.20;\r\n\r\ncontract MedicineSupplyChain {\r\n    enum MedicineStatus { InProduction, InTransit, Delivered, Sold }\r\n\r\n    struct Medicine {\r\n        string name;\r\n        string batchId;\r\n        string supplier;\r\n        string manufacturer;\r\n        string distributor;\r\n        string qrCode;\r\n        MedicineStatus status;\r\n        string enduser;\r\n        address owner;\r\n        bool exists; // Existence check flag\r\n    }\r\n\r\n    mapping(string => Medicine) private medicines;\r\n\r\n    event MedicineAdded(string indexed batchId, string name, address indexed owner);\r\n    event MedicineStatusUpdated(string indexed batchId, MedicineStatus status, address indexed updatedBy);\r\n    event MedicineSold(string indexed batchId, string enduser, address indexed soldBy);\r\n\r\n    modifier onlyOwner(string memory batchId) {\r\n        require(medicines[batchId].exists, \"Medicine does not exist\");\r\n        require(medicines[batchId].owner == msg.sender, \"Not authorized\");\r\n        _;\r\n    }\r\n\r\n    function addMedicine(\r\n        string memory name,\r\n        string memory batchId,\r\n        string memory supplier,\r\n        string memory manufacturer,\r\n        string memory distributor,\r\n        string memory qrCode\r\n    ) public {\r\n        require(!medicines[batchId].exists, \"Medicine already exists\");\r\n\r\n        medicines[batchId] = Medicine({\r\n            name: name,\r\n            batchId: batchId,\r\n            supplier: supplier,\r\n            manufacturer: manufacturer,\r\n            distributor: distributor,\r\n            qrCode: qrCode,\r\n            status: MedicineStatus.InProduction,\r\n            enduser: \"\",\r\n            owner: msg.sender,\r\n            exists: true\r\n        });\r\n\r\n        emit MedicineAdded(batchId, name, msg.sender);\r\n    }\r\n\r\n    function updateStatus(string memory batchId, MedicineStatus status) public onlyOwner(batchId) {\r\n        medicines[batchId].status = status;\r\n        emit MedicineStatusUpdated(batchId, status, msg.sender);\r\n    }\r\n\r\n    function sellMedicine(string memory batchId, string memory enduser) public onlyOwner(batchId) {\r\n        require(medicines[batchId].status != MedicineStatus.Sold, \"Medicine already sold\");\r\n\r\n        medicines[batchId].enduser = enduser;\r\n        medicines[batchId].status = MedicineStatus.Sold;\r\n\r\n        emit MedicineSold(batchId, enduser, msg.sender);\r\n    }\r\n\r\n    function getMedicineDetails(string memory batchId)\r\n        public\r\n        view\r\n        returns (\r\n            string memory name,\r\n            string memory batchIdOut,\r\n            string memory supplier,\r\n            string memory manufacturer,\r\n            string memory distributor,\r\n            string memory qrCode,\r\n            MedicineStatus status,\r\n            string memory enduser,\r\n            address owner\r\n        )\r\n    {\r\n        require(medicines[batchId].exists, \"Medicine not found\");\r\n\r\n        Medicine memory med = medicines[batchId];\r\n        return (\r\n            med.name,\r\n            med.batchId,\r\n            med.supplier,\r\n            med.manufacturer,\r\n            med.distributor,\r\n            med.qrCode,\r\n            med.status,\r\n            med.enduser,\r\n            med.owner\r\n        );\r\n    }\r\n}\r\n",
  "sourcePath": "C:\\Users\\Admin\\OneDrive\\Documents\\GitHub\\HealthCare_Web3\\blockchain\\contracts\\MedicineSupplyChain.sol",
  "compiler": {
    "name": "solc",
    "version": "0.8.20+commit.a1b79de6.Emscripten.clang"
  },
  "schemaVersion": "3.4.16",
  "updatedAt": "2025-02-12T17:34:11.986Z",
  "devdoc": {
    "kind": "dev",
    "methods": {},
    "version": 1
  },
  "userdoc": {
    "kind": "user",
    "methods": {},
    "version": 1
  }
}